S01600006578616D706C655F6D69785F30312E73726563B5
S113000046C000006BC0000069C0000067C000006B
S113001065C0000063C0000061C000005FC0000054
S11300205DC000005BC0000059C0000057C0000064
S113003055C0000053C0000051C000004FC0000074
S11300400CC100004BC000008FC10000BAC1000009
S113005045C00000E3C1000041C000003FC00000F3
S11300603DC000003BC0000039C0000037C00000A4
S113007035C0000033C000001DC1000048C10000AD
S11300802DC000002BC0000029C00000050411246D
S11300901FBECFEFD0E1DEBFCDBF11E0A0E0B1E0E5
S11300A0EEE4FAE000E00BBF02C007900D92AC3022
S11300B0B107D9F721E0ACE0B1E001C01D92AE3741
S11300C0B207E1F710E0C7E4D0E003C02197FE01D6
S11300D085D4C634D107D1F748D2B7C491CF2CB157
S11300E0E6E5F1E081859285992361F08F5F8830A0
S11300F008F080E090915E01981304C083E080933F
S113010061010895A82FB0E0E6E5F1E0AA5ABE4FD8
S11301102C93818782858F5F8287089520919C002C
S1130120E2E4F1E081859285992361F08F5F883064
S113013008F080E090914A01981304C083E0809312
S11301404D010895A82FB0E0E2E4F1E0AE5BBE4FAC
S11301502C93818782858F5F8287089584B195B1BE
S113016087B187B1807F87B9369A08958091540109
S11301708823A1F180915401811103C080914E0123
S11301802AC0AEE4B1E01496EC911497F0E0E25B7F
S1130190FE4F808116969C911697915016969C93CB
S11301A0911103C091E090935501EEE4F1E02481B4
S11301B09581291781F02091520130E02F5F3F4F44
S11301C0243031051CF01092520105C0EEE4F1E038
S11301D094819F5F948380939C000895EAE9F0E002
S11301E080818F7D8083089580916801882399F1AF
S11301F080916801811103C0809162012AC0A2E646
S1130200B1E01496EC911497F0E0EE59FE4F808122
S113021016969C911697915016969C93911103C033
S113022091E090936901E2E6F1E024819581291738
S113023081F02091660130E02F5F3F4F243031057B
S11302401CF01092660105C0E2E6F1E094819F5F24
S113025094838CB90895559808951F920F920FB600
S11302600F9211240BB60F922F933F934F935F93EA
S11302706F937F938F939F93AF93BF93EF93FF936A
S1130280E0912001F0912101309709F00995FF9147
S1130290EF91BF91AF919F918F917F916F915F91FA
S11302A04F913F912F910F900BBE0F900FBE0F9067
S11302B01F9018951F920F920FB60F9211240BB630
S11302C00F922F933F934F935F936F937F938F93EB
S11302D09F93AF93BF93EF93FF93E0911E01F0912F
S11302E01F01309709F00995FF91EF91BF91AF91EC
S11302F09F918F917F916F915F914F913F912F913A
S11303000F900BBE0F900FBE0F901F9018951F9269
S11303100F920FB60F9211240BB60F922F933F93A7
S11303204F935F936F937F938F939F93AF93BF93F9
S1130330EF93FF93E0911C01F0911D01309709F0B8
S11303400995FF91EF91BF91AF919F918F917F910B
S11303506F915F914F913F912F910F900BBE0F9032
S11303600FBE0F901F9018951F920F920FB60F9209
S113037011240BB60F922F933F934F935F936F9378
S11303807F938F939F93AF93BF93EF93FF93E091EA
S11303901A01F0911B01309709F00995FF91EF9133
S11303A0BF91AF919F918F917F916F915F914F9189
S11303B03F912F910F900BBE0F900FBE0F901F9087
S11303C018951F920F920FB60F9211240BB60F922D
S11303D02F933F934F935F936F937F938F939F9349
S11303E0AF93BF93EF93FF93E0911801F09119013C
S11303F0309709F00995FF91EF91BF91AF919F91CB
S11304008F917F916F915F914F913F912F910F90B9
S11304100BBE0F900FBE0F901F9018951F920F9256
S11304200FB60F9211240BB60F922F933F934F9355
S11304305F936F937F938F939F93AF93BF93EF9348
S1130440FF93E0911601F0911701309709F0099597
S1130450FF91EF91BF91AF919F918F917F916F9198
S11304605F914F913F912F910F900BBE0F900FBE54
S11304700F901F90189580910E018823E9F08091C8
S11304800F01811114C0B19B0CC0C198EEE0F1E0E2
S11304908381818380818F3F79F080818150808343
S11304A00895C19AEEE0F1E0828181830895EEE03F
S11304B0F1E0818181508183089598B387B3877F68
S11304C0917F98BB866087BB80E58DB91EB808957F
S11304D080911201882319F0843009F045C02091DD
S11304E0150186B382FB992790F981E089272817A3
S11304F0D9F1E2E1F1E0938181E08927838383816B
S1130500882361F080911401882324F480911401DC
S11305108F3FECF481E080931401089580911401DD
S113052018161CF0109212010EC0809114011816B6
S1130530BCF480911401883074F012C081E001C0D1
S113054083E0809312018FEF80931401089584E077
S113055080931201DFCF80911201843079F7F0CFBC
S113056082E080931201EFCF0895CF93DF9300D000
S113057000D000D0CDB7DEB71E821D8242E050E02D
S113058065E070E0CE0105964AD285E090E09C8358
S11305908B8342E050E063E070E0CE0103963FD2EB
S11305A042E050E063E070E0CE01019620D242E0E8
S11305B050E065E070E0CE01019631D2E2E1F1E075
S11305C0108211821282138298B387B38B7F997F32
S11305D0946098BB826087BB10920E0183E083BF56
S11305E08EEE93E0909321018093200181E087BFF8
S11305F08FE690E090931F0180931E0184EF90E0BA
S113060090931D0180931C011092900023E329B95B
S113061098E99AB986E0809395004EE850E05093AB
S11306201B0140931A0146EB50E05093190140938B
S11306301801109298002093990090939A00809347
S11306409D003BDF87E38FB9779BFECF8FB1EAE64E
S1130650F1E0128A118A108A138A809169018091CB
S113066060018091550180914C018EEA90E0909355
S113067017018093160187B1807F87B980E487B919
S11306808FEC86B9789401E011E0A8019DE2E2E6DE
S1130690F1E073E060E086818430E9F385812681AE
S11306A0222349F08F5F843008F0862F2481281399
S11306B002C077830AC0282F30E02E593E4FD9015B
S11306C09C93858386818F5F8683559ADA019D91F9
S11306D0AD019111E0CF8DE08A95F1F780E197E2C9
S11306E00197F1F79DE2EEE4F1E073E060E04AE99E
S11306F050E086818430E9F385812681222349F004
S11307008F5F843008F0862F2481281302C07783FA
S11307100AC0282F30E0225B3E4FD9019C93858389
S113072086818F5F8683DA018C9180628C93D801F5
S11307309D918D019111DDCF02E111E00F2EFEE0BC
S1130740EF2EF1E0FF2EF02D6894DD24D1F8CC24B7
S1130750C394BEDEF8018081813059F41082D70140
S1130760DC9211961C9211971296CC9212971396C2
S1130770DC9285B7837E85BF85B7806285BF789418
S1130780889585B78F7D85BFE4CF809114011816B5
S113079084F48091140188302CF4E2E1F1E0828148
S11307A08F5F8283809114018130B9F480931301A7
S11307B0089580911401882384F4E2E1F1E08281B8
S11307C0815082838F3F19F4109213010895809110
S11307D01401883011F410921401089580910D01D0
S11307E08F5F863018F480930D01089510920D01E7
S11307F0CCDF80910C018F5F843118F480930C015D
S1130800089510920C0137CE0895CF93DF9300D052
S1130810CDB7DEB7EAE6F1E0128A118A108A138AAC
S113082080E090E0F4D08535A1F08AE090E09A83EE
S1130830898342E050E061E070E0CE010196EFD0A0
S113084080E090E0E4D0853521F065E580E090E03B
S1130850EFD020913A0130913B0140913C015091FD
S11308603D0160913E0170913F0180914001909162
S11308704101A1E09BD020933A0130933B01409386
S11308803C0150933D0160933E0170933F0180937E
S113089040019093410196D031F4E2E6F1E01682F2
S11308A015821482178220913201309133014091D4
S11308B03401509135016091360170913701809176
S11308C0380190913901A1E071D020933201309325
S11308D03301409334015093350160933601709392
S11308E0370180933801909339016CD031F4E6E5F7
S11308F0F1E0128611861086138620912A01309128
S11309002B0140912C0150912D0160912E01709189
S11309102F018091300190913101A1E047D02093C3
S11309202A0130932B0140932C0150932D016093A5
S11309302E0170932F01809330019093310142D0A6
S113094031F4EEE4F1E016821582148217822091CC
S1130950220130912301409124015091250160919D
S11309602601709127018091280190912901A1E02D
S11309701DD02093220130932301409324015093EE
S11309802501609326017093270180932801909399
S1130990290118D031F4E2E4F1E0128611861086C0
S11309A013860F900F90DF91CF9108950024A7FD37
S11309B000942A0F301D401D501D601D701D801DA8
S11309C0901D08950024A7FD00942A1730054005C2
S11309D0500560057005800590050895EE0FFF1F12
S11309E00024001C0BBE0790F691E02D0994DC0155
S11309F0CB01FC01E199FECF06C0FFBBEEBBE09A40
S1130A0031960DB20D9241505040B8F70895E199D6
S1130A10FECF9FBB8EBBE09A99278DB30895DC016E
S1130A20CB0102C02D9105D041505040D8F7089514
S1130A30262FE199FECF9FBB8EBB2DBB0FB6F8943A
S1110A40E29AE19A0FBE01960895F894FFCF52
S10F0A4E2D2D20737461727465640A001D
S9030000FC
